:10021700C100016000026100001C4408090A0B0CC0
:100227000D0E08090A0B0C0D0E08090A0B0C0D0E12
:1002370008090A0B0C0D0E202321040404040404EE
:100247000404040404040404040404040404040467
:0D0257000404040404040404040404040466
:1002EC0074442560F8E6FF12026912001EFFC00775
:1002FC0074442560F8E6FF12026990000112003781
:0F030C00FDD00712032EE4FD7FF712035080FE91
:03000B00020145AA
:10014500C0E0C0F0C083C082C0D075D000C000C080
:1001550001C002C003C004C005C006C007C28C743C
:10016500442560F8E6FF12026912001EF58C7444FE
:100175002560F8E6FF120269900001120037F58A42
:10018500D28C3000051200038003120006B200D0A5
:1001950007D006D005D004D003D002D001D000D0BE
:0A01A500D0D082D083D0F0D0E03239
:03001B000201AF30
:1001AF00C0E0C0F0C0D075D000C000C004C005C012
:1001BF0006C007C28E758DF7758B00D28EAE61AFFC
:1001CF00627C007D32120064ED64014C7021742159
:1001DF002560F8E6D394007480948040087421253C
:1001EF0060F81680020560E56064237002F5600513
:1001FF0062E56270020561D007D006D005D004D049
:08020F0000D0D0D0F0D0E032A5
:0100090022D4
:1002B4000000000000FBFBFCFCFCFDFDFDFDFEFE60
:1002C400FEFE00000000000000000000000000002E
:1002D4000004900C44AC093482C806225685000000
:0802E400000000000000000012
:04026400020800008C
:03000300C2952281
:03000600D295226E
:10026900EF75F00784AEF0EF75F00784FD75F007C0
:10027900A424B4F582E43402F583E5822EF582E400
:100289003583F583E493F508ED75F007A424D0F5DB
:1002990082E43402F583E5822EF582E43583F58321
:0B02A900E493F5097B007A007908223D
:0A000E00EF24FF9288D2A8D2AF229F
:0A038E00EF24FF928AD2AAD2AF2218
:0E0372005389F08F8C8D8AD2AFD2A9D28C2203
:10032E005389F04389018F8C8D8AD2AFD2A9D28C9A
:01033E00229C
:10033F005389F04389028F8C8D8AD2AFD2A9D28C88
:01034F00228B
:10031B005389F04389038F8C8D8AD2AFD2A9D28CAB
:03032B00D28E224D
:0E03800053890F8F8D8D8BD2AFD2ABD28E22D0
:1003500053890F4389108F8D8D8BD2AFD2ABD28E44
:01036000227A
:1003610053890F4389208F8D8D8BD2AFD2ABD28E23
:010371002269
:030000000200B942
:0C00B900787FE4F6D8FD7581620201003A
:10001E00BB010689828A83E0225002E722BBFE02E0
:09002E00E32289828A83E4932213
:10003700BB010CE58229F582E5833AF583E022507E
:1000470006E92582F8E622BBFE06E92582F8E222C8
:0D005700E58229F582E5833AF583E49322E2
:10006400BC000BBE0029EF8DF084FFADF022E4CC80
:10007400F875F008EF2FFFEE33FEEC33FCEE9DEC49
:10008400984005FCEE9DFE0FD5F0E9E4CEFD22ED8F
:10009400F8F5F0EE8420D21CFEADF075F008EF2FD9
:1000A400FFED33FD4007985006D5F0F222C398FDCA
:0500B4000FD5F0EA2267
:1000C5000202ECE493A3F8E493A34003F68001F263
:1000D50008DFF48029E493A3F85407240CC8C3333C
:1000E500C4540F4420C8834004F456800146F6DF0B
:1000F500E4800B0102040810204080900217E47E82
:10010500019360BCA3FF543F30E509541FFEE493FF
:10011500A360010ECF54C025E060A840B8E493A3C6
:10012500FAE493A3F8E493A3C8C582C8CAC583CAF1
:10013500F0A3C8C582C8CAC583CADFE9DEE780BEA9
:010268000095
:00000001FF
