:08021400C1000108000109000E
:10016A00E4FD7FF71201A03000FDC200AF091201C1
:10017A00180509D3E50994087480948040E9E4F5E8
:03018A000980E405
:03000B00020145AA
:10014500C0E0C0D0C28C758CF7758A00D28C0508CA
:10015500C3E50894C8748094804005750800D200F2
:05016500D0D0D0E03213
:10009A00EF5407B4080050369000A9F828287302D4
:1000AA0000C10200C40200C70200CA0200CD020059
:1000BA00D00200D30200D6C2A022C2A122C2A2222A
:0F00CA00C2A322C2A422C2A522C2A622C2A7227A
:1000D900EF5407B4080050369000E8F82828730256
:1000E900010002010302010602010902010C0201D9
:1000F9000F020112020115D2A022D2A122D2A222FC
:0F010900D2A322D2A422D2A522D2A622D2A722EA
:0A020000EF24FF9288D2A8D2AF22AB
:0A020A00EF24FF928AD2AAD2AF229D
:0E01E4005389F08F8C8D8AD2AFD2A9D28C2293
:1001A0005389F04389018F8C8D8AD2AFD2A9D28C2A
:0101B000222C
:1001B1005389F04389028F8C8D8AD2AFD2A9D28C18
:0101C100221B
:10018D005389F04389038F8C8D8AD2AFD2A9D28C3B
:03019D00D28E22DD
:0E01F20053890F8F8D8D8BD2AFD2ABD28E2260
:1001C20053890F4389108F8D8D8BD2AFD2ABD28ED4
:0101D200220A
:1001D30053890F4389208F8D8D8BD2AFD2ABD28EB3
:0101E30022F9
:100118008F0AC3EF940474809480500F12009AAF32
:100128000A050AC374079FFF02009AAF0A1200D992
:0D013800AF0A050AC374079FFF1200D92209
:0300000002000EED
:0C000E00787FE4F6D8FD758120020055D3
:10001A0002016AE493A3F8E493A34003F68001F291
:10002A0008DFF48029E493A3F85407240CC8C333E7
:10003A00C4540F4420C8834004F456800146F6DFB6
:10004A00E4800B0102040810204080900214E47E30
:10005A00019360BCA3FF543F30E509541FFEE493AB
:10006A00A360010ECF54C025E060A840B8E493A372
:10007A00FAE493A3F8E493A3C8C582C8CAC583CA9D
:10008A00F0A3C8C582C8CAC583CADFE9DEE780BE55
:01021C0000E1
:00000001FF
