:10084A00026B0000026D0000016F00C13EC13CC195
:09085A0038C139C13BC13AC13D6E
:10041000E4FD7FF7121562120FBB303E3BC23EAFC8
:100420006F1214BBE56E7020E56D701C7F04303FC9
:100430000F1215D27F021215D27F011215D2800839
:100440001215F17F021215F1056FC3E56F94087460
:100450008094804003E4F56F303C08C23C120A9A55
:10046000120710303815C2381214950574D3E5748C
:100470009408748094804003E4F574303B26C23BBA
:10048000E56D7020E56E14701B30450AAF6AAE69E9
:10049000AD68AC678008AF66AE65AD64AC63755897
:1004A0000A1210B5303911C239E56D700BE56E24B2
:1004B000FE60028003121132303A53C23AE56E7088
:1004C0004DE56D7049304244303F1BE51924FE6014
:1004D0000C047038A24192491212DC802FA2419282
:1004E0004912131A8026E51924FE601014601624A0
:1004F000027019A24192491211978010A2419249AB
:100500001213588007A2419249121396B241303D0E
:1005100053C23DE56E704AE56D7046151DD3E51D6D
:100520009400748094805026C242303F0CD249120D
:1005300012DCD24912131A800FD249121197D249F4
:10054000121358D249121396751D0AE4F519204367
:100550000330400DC243303F05120FBB8003120C25
:10056000D0120C26E56D7019E56E14600C14600E47
:100570002402700D120974800812000E8003120B01
:100580006930301B203118203215203312C230E47C
:10059000F56DF56E303F05120FBB8003120CD020B5
:1005A000301130310E20320B203308C231756D000E
:1005B000756E0130300302041A30310302041A2030
:1005C000320302041A30330302041AC232756D007A
:0605D000756E0202041A20
:03000B00020D6F74
:100D6F00C0E0C0F0C0D075D000C000C004C005C046
:100D7F0006C007C28C758CF7758A00D28CD23EE5FF
:100D8F006C30E002D23CAE6BAF6C7C007D14120273
:100D9F0057ED640D4C7002D238AE6BAF6C7C007D9A
:100DAF0028120257ED64254C7002D239AE6BAF6C2E
:100DBF007C007D64120257ED64534C7002D23BAE3F
:100DCF006BAF6C7C007DC8120257ED64AB4C7002A8
:100DDF00D23AC3E56C9490E56B94014008D23D750F
:100DEF006B00756C00056CE56C7002056BD007D05D
:0E0DFF0006D005D004D000D0D0D0F0D0E03225
:100863000463000000000467000000000160000151
:0B087300612B016200C145C1C6C144F9
:100E0D00E56124D6604124FD602224FE604E240459
:100E1D007075E566256AF566E5653569F565E56420
:100E2D003568F564E5633567F563805BC3E5669505
:100E3D006AF566E5659569F565E5649568F564E5BA
:100E4D00639567F5638040AF66AE65AD64AC63AB2B
:100E5D006AAA69A968A8671202E28023AF6AAE691F
:100E6D00AD68AC67EC4D4E4F7002FF22AF66AE65BC
:100E7D00AD64AC63AB6AAA69A968A86712036D8FEC
:100E8D00668E658D648C63E4F56AF569F568F567C2
:030E9D007F0122B0
:0E0EA000F55AF559F558AF6AAE69AD68AC6702
:080EAE008F578E568D558C54B0
:100EB600855B5F855A5E85595D85585CAF57AE5632
:100EC600AD55AC54E47B0AFAF9F81202E28F578E5C
:100ED600568D558C54AF5FAE5EAD5DAC5CE47B0A5F
:100EE600FAF9F812036D8F5F8E5E8D5D8C5CE4FF00
:100EF600FEFDFCAB5FAA5EA95DA85CD31203FF50A2
:100F0600BBE557255BFFE556355AFEE5553559FDD8
:100F1600E5543558FC7B007AE179F5780512036DC6
:080F2600AC00AD01AE02AF0307
:010F2E0022A0
:10140900801ED3E558940074809480401D1558AF10
:1014190057AE56AD55AC54E47B0AFAF9F812036D90
:101429008F578E568D558C5480D8AF57AE56AD55C3
:03143900AC54228E
:10000E00300F23C20F304409E4F566F565F564F54B
:10001E0063D245D246C244E4755B01120EA08F6ACC
:10002E008E698D688C67301923C219304409E4F546
:10003E0066F565F564F563D245D246C244E4755B58
:10004E0002120EA08F6A8E698D688C67301B23C2D8
:10005E001B304409E4F566F565F564F563D245D2C7
:10006E0046C244E4755B03120EA08F6A8E698D68DA
:10007E008C67300B23C20B304409E4F566F565F549
:10008E0064F563D245D246C244E4755B04120EA0F9
:10009E008F6A8E698D688C67300C23C20C304409D0
:1000AE00E4F566F565F564F563D245D246C244E4DF
:1000BE00755B05120EA08F6A8E698D688C67300D88
:1000CE0023C20D304409E4F566F565F564F563D297
:1000DE0045D246C244E4755B06120EA08F6A8E6945
:1000EE008D688C67300723C207304409E4F566F546
:1000FE0065F564F563D245D246C244E4755B0712DA
:10010E000EA08F6A8E698D688C67300823C2083006
:10011E004409E4F566F565F564F563D245D246C249
:10012E0044E4755B08120EA08F6A8E698D688C6729
:10013E00300923C209304409E4F566F565F564F526
:10014E0063D245D246C244E4755B09120EA08F6A93
:10015E008E698D688C67302122C221304409E4F506
:10016E0066F565F564F563D245D246C244E4F55BA7
:10017E00120EA08F6A8E698D688C67300A14C20ABF
:10018E0075602B304607120E0DC246C245C244851D
:10019E006061300E14C20E75602D304607120E0DC2
:1001AE00C246C245C244856061301D14C21D7560D1
:1001BE002A304607120E0DC246C245C24485606102
:1001CE00302514C22575602F304607120E0DC2461B
:1001DE00C245C244856061302311C223120E0DC286
:1001EE0046C245D244E4F56075612B301F38C21FFC
:1001FE00304617AF6AAE69AD68AC67755801121418
:10020E00098F6A8E698D688C6722E4F566F565F54F
:10021E0064F563F56AF569F568F567F56075612B48
:07022E00C245D246C2442282
:10087E00C143C140C1BFC142C141021707E40116C5
:10088E0001011B01011C00011500011400011900DA
:10089E00011D0A011A000C081F1C1F1E1F1E1F1F00
:0408AE001E1F1E1FCC
:1013D400AE17AF187C007D041202ACED4C7023AE46
:1013E40017AF18FC7D641202ACED4C7012AE17AF4F
:1013F400187C017D901202ACED4C60037F00227FCB
:0514040001227F00221F
:100C26000514D243AF14EF3395E0FED3EF943BEEB9
:100C3600648094805003020CCFE4F5140515AF15BB
:100C4600EF3395E0FED3EF943BEE648094804079D9
:100C5600E4F515051CAF1CEF3395E0FED3EF9417B2
:100C6600EE648094804062E4F51CD240051B1213AA
:100C7600D4EFFBAF16EF3395E0FEEF24FFFFEE3423
:100C8600FFFE7C007D0C1202AC74082DF8E62BFFEB
:100C9600E433FEAD1BED3395E0FCD3ED9FEE6480AF
:100CA600F8EC6480984022751B010516AF16EF33E9
:100CB60095E0FED3EF940CEE64809480400B75169D
:0A0CC600010518E518700205172259
:100FBB00E51C75F00A120235FF75F00A120235AD09
:100FCB00F07F071215A6E51C75F00A120235ADF07D
:100FDB007F061215A67D107F051215A6E51575F077
:100FEB000A120235FF75F00A120235ADF07F0412BA
:100FFB0015A6E51575F00A120235ADF07F03121533
:10100B00A67D107F021215A6E51475F00A120235A3
:10101B00FF75F00A120235ADF07F011215A6E5142B
:0D102B0075F00A120235ADF0E4FF0215A6C3
:100CD000AE17AF187C037DE81202AC7C007D0A12CF
:100CE00002AC7F071215A6AE17AF187C007D641208
:100CF00002AC7C007D0A1202AC7F061215A6AE176C
:100D0000AF187C007D0A1202AC7C007D0A1202AC96
:100D10007F051215A6AE17AF187C007D0A1202AC33
:100D20007F041215A6E51675F00A120235FF75F05C
:100D30000A120235ADF07F031215A6E51675F00A0A
:100D4000120235ADF07F021215A6E51B75F00A12EE
:100D50000235FF75F00A120235ADF07F011215A6BB
:0F0D6000E51B75F00A120235ADF0E4FF0215A68F
:1012DC00A249E433FD7F07120003A249E433FD7FEA
:1012EC00061200037D017F051200037D017F0412AD
:1012FC0000037D017F031200037D017F02120003B6
:0E130C007D017F011200037D01E4FF0200035A
:10131A007D017F071200037D017F061200037D0114
:10132A007F05120003A249E433FD7F04120003A2E1
:10133A0049E433FD7F031200037D017F021200039B
:0E134A007D017F011200037D01E4FF0200031C
:10119700A249E433FD7F07120003A249E433FD7F30
:1011A70006120003A249E433FD7F05120003A2499A
:1011B700E433FD7F041200037D017F031200037DEA
:1011C700017F021200037D017F011200037D01E40C
:0411D700FF02000310
:101358007D017F071200037D017F061200037D01D6
:101368007F051200037D017F04120003A249E433C4
:10137800FD7F03120003A249E433FD7F021200033C
:0E1388007D017F011200037D01E4FF020003DE
:101396007D017F071200037D017F061200037D0198
:1013A6007F051200037D017F041200037D017F0388
:1013B6001200037D017F02120003A249E433FD7F80
:0E13C60001120003A249E433FDE4FF0200031C
:10146A00EF251CF51CFF3395E0FED3EF9417EE64CD
:10147A008094804005E4F51C800BC3EE6480948060
:0B148A005003751C17E4F514020FBBA3
:1011DB00EF2515F515FF3395E0FED3EF943BEE6449
:1011EB00809480401CE4F515051CAD1CED3395E097
:1011FB00FCD3ED9417EC648094804012E4F51C80D2
:10120B000DC3EE64809480500575153B151CE4F5F9
:04121B0014020FBBEF
:10121F00EF3395E0FEEF2518F518EE3517F517D3D8
:10122F00E518940FE517648094A74007E4F517F5C8
:10123F00188013AF16EF3395E0C364809480500687
:0F124F0075172775180F751601751B01020CD046
:10143C00EF2516F516FF3395E0FED3EF940CEE6412
:10144C008094804005751601800EC3EF9401EE6404
:0E145C00809480500375160C751B01020CD095
:10103800EF251BF51BAF16EF3395E0FEEF64024E6C
:10104800703D1213D474072516F8E62FFFE433FE1B
:10105800AD1BED3395E0FCD3ED9FEE6480F8EC64B6
:10106800809840028032C3ED9401EC6480948050F3
:10107800391213D474072516F8E62FF51B802B7444
:10108800072516F8E6FFFDE51BFB3395E0FAD3EBE1
:101098009D7480F86A984005751B01800DC3EB9418
:0D10A80001EA6480948050028F1B020CD07E
:10097400301F2BC21FB23F303F0FD2491212DCD2BC
:100984004912131A120FBB8012D249121197D2497D
:10099400121358D249121396120CD0E4F5193023CD
:1009A4002EC223D242751D0A0519303F0DC3E51925
:1009B4009403748094804017800BC3E519940474E5
:1009C400809480400AE4F519C242D2491212DC3004
:1009D4000A42C20A30423D751D0A303F17E5192408
:1009E400FE600A04702E7F0112146A80277F0112B0
:1009F40011DB8020E51924FE600E146012240270BD
:100A0400137F0112121F800C7F0112143C80057F9A
:100A140001121038300E42C20E30423D751D0A30AC
:100A24003F17E51924FE600A04702E7FFF12146A32
:100A340080277FFF1211DB8020E51924FE600E144D
:100A44006012240270137FFF12121F800C7FFF12AA
:100A5400143C80057FFF121038300702C2073008AB
:100A640002C208300902C209300B02C20B300C0268
:100A7400C20C300D02C20D300F02C20F301902C277
:100A840019301B02C21B301D02C21D302102C221BB
:060A9400302502C22522FC
:0308B200017400CE
:10149500C3E574940474809480AF74500C12125E8A
:1014A500C374079574FF02125E12129DC3740795EB
:0614B50074FF12129D22DB
:0A15DD00EF24FF9288D2A8D2AF22BB
:0A15E700EF24FF928AD2AAD2AF22AD
:0E15B6005389F08F8C8D8AD2AFD2A9D28C22AD
:101562005389F04389018F8C8D8AD2AFD2A9D28C54
:011572002256
:101573005389F04389028F8C8D8AD2AFD2A9D28C42
:011583002245
:10152B005389F04389038F8C8D8AD2AFD2A9D28C89
:03153B00D28E222B
:0E15C40053890F8F8D8D8BD2AFD2ABD28E227A
:1015840053890F4389108F8D8D8BD2AFD2ABD28EFE
:011594002234
:1015950053890F4389208F8D8D8BD2AFD2ABD28EDD
:0115A5002223
:1008B500C134C135C136C137C130C131C132C1338F
:0C08C5000170FF0171FF0172FF0173FF61
:100A9A00E57025E0F570E57125E0F571E57225E070
:100AAA00F572E57325E0F57330B10343700130B098
:100ABA000343710130B20343720130B3034373013C
:100ACA00E570540F640D7003437002E571540F64AE
:100ADA000D7003437102E572540F640D7003437283
:100AEA0002E573540F640D7003437302E570540FEB
:100AFA006402700353700DE571540F64027003535E
:100B0A00710DE572540F6402700353720DE573544C
:100B1A000F6402700353730DAF707E00EF64F070C0
:100B2A0002D234AD717C00ED64F07002D235E57208
:100B3A0064F07002D236E57364F07002D237EF6463
:100B4A000F4E7002D230ED640F4C7002D231E57252
:0E0B5A00640F7002D232E573640F7002D23362
:010B6800226A
:1008D100C190C191C192C193C194C195C196C19773
:1008E100C198C1A9C1AAC1ABC1ACC1ADC1AEC1AFB3
:1008F100C19AC19CC19EC1A0C1A2C1A4C1A6C1A7E8
:10090100C1A8C180C181C182C183C184C185C186A1
:10091100C107C108C109C10AC10BC10CC10DC10E7A
:10092100C10FC119C11BC11DC11FC121C123C125D6
:06093100011E00011F0081
:1005D600E51E14605914700302067A1470030206AD
:1005E600BF2403600302070275907FA293921AA2AA
:1005F60092921CA291921EA2909220201005301A6F
:1006060002D207201105301C02D208201205301E26
:1006160002D209201305302002D20AA21A9210A291
:100626001C9211A21E9212A220921302070275902A
:10063600BFA2939222A2929224A2919226A2909273
:1006460027201405302202D20B201505302402D2B1
:100656000C201605302602D20D201705302702D2AF
:100666000EA2229214A2249215A2269216A22792D4
:10067600170207027590DFA2939228A2929200A217
:10068600919201A2909202201805302802D20F20E2
:100696002905300002D219202A05300102D21B207A
:1006A6002B05300202D21DA2289218A2009229A27E
:1006B60001922AA202922B80437590EFA293920395
:1006C600A2929204A2919205A2909206202C053045
:1006D6000302D21F202D05300402D221202E053020
:1006E6000502D223202F05300602D225A203922C22
:1006F600A204922DA205922EA206922F051EE51E99
:0907060075F00412023585F01EA5
:01070F0022C7
:10071000E51F1460591470030207B4147003020734
:10072000F92403600302083C7590F7A297921AA27D
:10073000969222A2959228A2949203201005301A34
:1007400002D207201405302202D20B2018053028CF
:1007500002D20F202C05300302D21FA21A9210A23F
:10076000229214A2289218A203922C02083C75909F
:10077000FBA297921CA2969224A2959200A2949218
:1007800004201105301C02D208201505302402D2A5
:100790000C202905300002D219202D05300402D288
:1007A00021A21C9211A2249215A2009229A20492C5
:1007B0002D02083C7590FDA297921EA2969226A249
:1007C000959201A2949205201205301E02D20920B2
:1007D0001605302602D20D202A05300102D21B2038
:1007E0002E05300502D223A21E9212A2269216A234
:1007F00001922AA205922E80437590FEA297922024
:10080000A2969227A2959202A294920620130530F6
:100810002002D20A201705302702D20E202B0530E5
:100820000202D21D202F05300602D225A2209213EB
:10083000A2279217A202922BA206922F051FE51F54
:0908400075F00412023585F01F69
:01084900228C
:10153E003F065B4F666D7D077F6F777C395E7971F5
:02154E0040005B
:1009370008440000000000000000084C010101010C
:0409470001010101A8
:0815F10074442FF8E64480F673
:0115F90022CF
:0A15D20074442FF8E6547F547FF6AE
:0115DC0022EC
:0F15A60074442FF8E65480FEED90153E934EF6F8
:0115B5002213
:0810B5008F578E568D558C54A7
:1010BD00E4F559AF58AB07E4FAF9F8AF57AE56ADB2
:1010CD0055AC5412036D743E2BF58274153AF583AD
:1010DD00E493FF74442559F8E65480FEEF4EF6056F
:1010ED0059AF57AE56AD55AC54E47B0AFAF9F81228
:1010FD00036D8F578E568D558C54E4FFFEFDFCAB62
:10110D0057AA56A955A854D31203FF50A6C3E559A3
:10111D00940874809480500CAF59055974442FF87D
:04112D00E4F680E97B
:01113100229B
:10151300E4F575C3E5759408748094805009AF753C
:071523001214BB057580ECFA
:01152A00229E
:1014BB00E4F580EF1392A2EFC3131392A3EF131370
:1014CB00543F1392A4744C2FF8E6600774442FF822
:0414DB00E6F5802290
:07000300744C2FF8A6052242
:10125E00EF5407B40800503690126DF82828730228
:10126E00128502128802128B02128E021291021243
:10127E009402129702129AC2A022C2A122C2A222E4
:0F128E00C2A322C2A422C2A522C2A622C2A722A4
:10129D00EF5407B4080050369012ACF828287302AA
:1012AD0012C40212C70212CA0212CD0212D00212C9
:1012BD00D30212D60212D9D2A022D2A122D2A222B8
:0F12CD00D2A322D2A422D2A522D2A622D2A72215
:10094B00C147C148014000014300023E0000024183
:10095B000000142A0000000000000000000000004E
:08096B00000000000000000084
:1014DF00E4FFEFC3940A74809480500DEF25E0244D
:0914EF002AF8E4F608F60F80E982
:0114F80022D1
:101550007F011215F1E4FDFF1215A6E4FD7F0102E3
:0215600015A6CE
:10113200304713053FE53F7002053EC3940AE53E82
:1011420094004002C200304815AE41AF42E4FCFDBB
:1011520075580A1210B5E54245417024801CAE3E16
:10116200AF3FE4FCFD75580A1210B5AE3EAF3F7CAE
:10117200007D0A120257EF4E7006FD7F011215A67E
:101182007F011215F1AE3EAF3F7C967D8012025771
:051192008C3E8D3F22A0
:100B6900300A15C20A05431214F9C3E543940A74FD
:100B79008094804003E4F543300E15C20E154312EC
:100B890014F9C3E543940A748094804003754309BA
:100B9900301D2AC21DC3E540940A74809480501DFB
:100BA900E54025E0242AF8E6FE08E64E700FAF403E
:100BB9000540EF25E0242AF8A63E08A63F301F1479
:100BC900C21FE4F53EF53FF541F542D200C247F5B3
:100BD900401214DF302304C223B247302507C2254F
:100BE900B2481214F9300702C207300802C20830AD
:100BF9000902C209300B02C20B300C02C20C300DC3
:100C090002C20D300F02C20F301902C219301B0285
:0D0C1900C21B302102C221302502C225225B
:1014F9007F011215F1E54375F00A84E5F025E02432
:0A1509002AF8E6F54108E6F5422253
:03000000020F2FBD
:0C0F2F00787FE4F6D8FD758175020F761E
:10023500C2D530F707B2D563F0FF05F030E70CB251
:10024500D5F4048463F0FF05F080018430D502F411
:02025500042281
:10025700BC000BBE0029EF8DF084FFADF022E4CC8B
:10026700F875F008EF2FFFEE33FEEC33FCEE9DEC54
:10027700984005FCEE9DFE0FD5F0E9E4CEFD22ED9A
:10028700F8F5F0EE8420D21CFEADF075F008EF2FE4
:10029700FFED33FD4007985006D5F0F222C398FDD5
:0502A7000FD5F0EA2272
:1002AC00C2D5EC30E709B2D5E4C39DFDE49CFCEE6D
:1002BC0030E715B2D5E4C39FFFE49EFE120257C38C
:1002CC00E49DFDE49CFC800312025730D507C3E487
:0602DC009FFFE49EFE22DC
:1002E200E88FF0A4CC8BF0A42CFCE98EF0A42CFCBB
:1002F2008AF0EDA42CFCEA8EF0A4CDA8F08BF0A439
:100302002DCC3825F0FDE98FF0A42CCD35F0FCEB97
:100312008EF0A4FEA9F0EB8FF0A4CFC5F02ECD395C
:0F032200FEE43CFCEAA42DCE35F0FDE43CFC22C9
:1003310075F008758200EF2FFFEE33FECD33CDCC83
:1003410033CCC58233C5829BED9AEC99E582984006
:100351000CF582EE9BFEED9AFDEC99FC0FD5F0D6E3
:10036100E4CEFBE4CDFAE4CCF9A88222B800C1B90D
:100371000059BA002DEC8BF084CFCECDFCE5F0CB4B
:10038100F97818EF2FFFEE33FEED33FDEC33FCEB84
:1003910033FB10D703994004EB99FB0FD8E5E4F93F
:1003A100FA227818EF2FFFEE33FEED33FDEC33FC2C
:1003B100C933C910D7059BE99A4007EC9BFCE99A20
:1003C100F90FD8E0E4C9FAE4CCFB2275F010EF2F65
:1003D100FFEE33FEED33FDCC33CCC833C810D70765
:1003E1009BEC9AE899400AED9BFDEC9AFCE899F8A0
:0E03F1000FD5F0DAE4CDFBE4CCFAE4C8F92233
:1003FF00EB9FF5F0EA9E42F0E99D42F0E89C45F054
:01040F0022CA
:100F3B00020410E493A3F8E493A34003F68001F2B8
:100F4B0008DFF48029E493A3F85407240CC8C333B7
:100F5B00C4540F4420C8834004F456800146F6DF86
:100F6B00E4800B010204081020408090084AE47EC4
:100F7B00019360BCA3FF543F30E509541FFEE4937B
:100F8B00A360010ECF54C025E060A840B8E493A342
:100F9B00FAE493A3F8E493A3C8C582C8CAC583CA6D
:100FAB00F0A3C8C582C8CAC583CADFE9DEE780BE25
:010973000083
:00000001FF
