:0D03F000C131C132C130015B000259000073
:1007A200E4FD7FF712086C120848303217C232AFEC
:1007B2005B1207D9055BC3E55B94087480948040A3
:1007C20003E4F55B3030061202B61204B93031DAB6
:0707D200C23112058280D341
:03000B0002072EBB
:10072E00C0E0C0F0C0D075D000C000C004C005C08D
:10073E0006C007C28C758CF7758A00D28CE55A30CC
:10074E00E002D232AE59AF5A7C007D0A120030ED73
:10075E0064074C7002D230AE59AF5A7C007D28121D
:10076E000030ED64254C7002D231C3E55A9490E509
:10077E005994014006755900755A00055AE55A708C
:10078E00020559D007D006D005D004D000D0D0D065
:04079E00F0D0E03285
:1003FD00C133C134015300015800044F0000000007
:10040D000454000000002028270000000000000018
:10041D0000000000000000000000000000000000CF
:10042D0000000000000000000000000000000000BF
:01043D0000BE
:100848007F011208FBE4FDFF1208B0E4FD7F0102FE
:0208580008B0E6
:1005820030332BE5522401F552E43551F551E4356F
:1005920050F550E4354FF54FE47F0AFEFDFCAB52B7
:1005A200AA51A950A84FC31201534002C2003034CD
:1005B2001EAF57AE56AD55AC54751C0A1206B1AFFC
:1005C20057AE56AD55AC54EC4D4E4F702D8025AF05
:1005D20052AE51AD50AC4F751C0A1206B1E47B0A03
:1005E200FAF9F8AF52AE51AD50AC4F1200C1EC4D1A
:1005F2004E4F7006FD7F011208B07F011208FBAF5B
:1006020052AE51AD50AC4F7B807A967998780012F9
:1006120000C1AC00AD01AE02AF038F528E518D50BE
:030622008C4F22D8
:1004B900300A15C20A05581207FDC3E558940A7493
:1004C9008094804003E4F558300E15C20E15581279
:1004D90007FDC3E558940A74809480400375580950
:1004E900301D3BC21DC3E553940A74809480502E7D
:1004F900E55325E025E02427F8120164E4FBFAF925
:10050900F8C31201537017AF52AE51AD50AC4FAB97
:10051900530553EB25E025E02427F8120170301F1D
:100529000FC21FE4F552F551F550F54FD200C23311
:10053900302304C223B233302507C225B23412074F
:10054900FD300702C207300802C208300902C20999
:10055900300B02C20B300C02C20C300D02C20D303E
:100569000F02C20F301902C219301B02C21B3021FF
:0905790002C221302502C2252234
:1007FD007F011208FBE55875F00A84E5F025E02528
:10080D00E02427F81201648F578E568D558C542293
:10085A003F065B4F666D7D077F6F777C395E7971E6
:02086A0040004C
:10043E000808000000000000000008100101010182
:04044E0001010101A6
:0808FB0074082FF8E64480F6B2
:0109030022D1
:0A08DC0074082FF8E6547F547FF6ED
:0108E60022EF
:0F08B00074082FF8E65480FEED90085A934EF628
:0108BF002216
:0806B1008F1B8E1A8D198C18A5
:1006B900E4F51DAF1CAB07E4FAF9F8AF1BAE1AADB0
:1006C90019AC181200C1745A2BF58274083AF583D3
:1006D900E493FF7408251DF8E65480FEEF4EF605F5
:1006E9001DAF1BAE1AAD19AC18E47B0AFAF9F81262
:1006F90000C18F1B8E1A8D198C18E4FFFEFDFCAB0F
:100709001BAA1AA919A818D312015350A6C3E51D8B
:10071900940874809480500CAF1D051D74082FF83F
:04072900E4F680E989
:01072D0022A9
:10081D00E4F55CC3E55C9408748094805009AF5C8A
:07082D001207D9055C80EC05
:0108340022A1
:1007D900E4F580EF1392A2EFC3131392A3EF13135F
:1007E900543F1392A474102FF8E6600774082FF889
:0407F900E6F580227F
:0700030074102FF8A605227E
:0A08E700EF24FF9288D2A8D2AF22BE
:0A08F100EF24FF928AD2AAD2AF22B0
:0E08C0005389F08F8C8D8AD2AFD2A9D28C22B0
:10086C005389F04389018F8C8D8AD2AFD2A9D28C57
:01087C002259
:10087D005389F04389028F8C8D8AD2AFD2A9D28C45
:01088D002248
:100835005389F04389038F8C8D8AD2AFD2A9D28C8C
:03084500D28E222E
:0E08CE0053890F8F8D8D8BD2AFD2ABD28E227D
:10088E0053890F4389108F8D8D8BD2AFD2ABD28E01
:01089E002237
:10089F0053890F4389208F8D8D8BD2AFD2ABD28EE0
:0108AF002226
:10045200C190C191C192C193C194C195C196C197F6
:10046200C198C1A9C1AAC1ABC1ACC1ADC1AEC1AF36
:10047200C19AC19CC19EC1A0C1A2C1A4C1A6C1A76B
:10048200C1A8C180C181C182C183C184C185C18625
:10049200C107C108C109C10AC10BC10CC10DC10EFE
:1004A200C10FC119C11BC11DC11FC121C123C1255A
:0604B200011E00011F0005
:10017C00E51E14605914700302022014700302026D
:10018C0065240360030202A875907FA293921AA2C1
:10019C0092921CA291921EA2909220201005301ACD
:1001AC0002D207201105301C02D208201205301E85
:1001BC0002D209201305302002D20AA21A9210A2F0
:1001CC001C9211A21E9212A22092130202A87590E8
:1001DC00BFA2939222A2929224A2919226A29092D2
:1001EC0027201405302202D20B201505302402D210
:1001FC000C201605302602D20D201705302702D20E
:10020C000EA2229214A2249215A2269216A2279232
:10021C00170202A87590DFA2939228A2929200A2D4
:10022C00919201A2909202201805302802D20F2040
:10023C002905300002D219202A05300102D21B20D8
:10024C002B05300202D21DA2289218A2009229A2DC
:10025C0001922AA202922B80437590EFA2939203F3
:10026C00A2929204A2919205A2909206202C0530A3
:10027C000302D21F202D05300402D221202E05307E
:10028C000502D223202F05300602D225A203922C80
:10029C00A204922DA205922EA206922F051EE51EF7
:0902AC0075F00412000E85F01E2D
:0102B5002226
:1002B600E51F14605914700302035A1470030203F5
:1002C6009F240360030203E27590F7A297921AA295
:1002D600969222A2959228A2949203201005301A93
:1002E60002D207201405302202D20B20180530282E
:1002F60002D20F202C05300302D21FA21A9210A29E
:10030600229214A2289218A203922C0203E275905C
:10031600FBA297921CA2969224A2959200A2949276
:1003260004201105301C02D208201505302402D203
:100336000C202905300002D219202D05300402D2E6
:1003460021A21C9211A2249215A2009229A2049223
:100356002D0203E27590FDA297921EA2969226A206
:10036600959201A2949205201205301E02D2092010
:100376001605302602D20D202A05300102D21B2096
:100386002E05300502D223A21E9212A2269216A292
:1003960001922AA205922E80437590FEA297922082
:1003A600A2969227A2959202A29492062013053055
:1003B6002002D20A201705302702D20E202B053044
:1003C6000202D21D202F05300602D225A22092134A
:1003D600A2279217A202922BA206922F051FE51FB3
:0903E60075F00412000E85F01FF1
:0103EF0022EB
:03000000020625D0
:0C062500787FE4F6D8FD75815C02066C5D
:10000E00C2D530F707B2D563F0FF05F030E70CB27A
:10001E00D5F4048463F0FF05F080018430D502F43A
:02002E000422AA
:10003000BC000BBE0029EF8DF084FFADF022E4CCB4
:10004000F875F008EF2FFFEE33FEEC33FCEE9DEC7D
:10005000984005FCEE9DFE0FD5F0E9E4CEFD22EDC3
:10006000F8F5F0EE8420D21CFEADF075F008EF2F0D
:10007000FFED33FD4007985006D5F0F222C398FDFE
:050080000FD5F0EA229B
:1000850075F008758200EF2FFFEE33FECD33CDCC32
:1000950033CCC58233C5829BED9AEC99E5829840B5
:1000A5000CF582EE9BFEED9AFDEC99FC0FD5F0D692
:1000B500E4CEFBE4CDFAE4CCF9A88222B800C1B9BC
:1000C5000059BA002DEC8BF084CFCECDFCE5F0CBFA
:1000D500F97818EF2FFFEE33FEED33FDEC33FCEB33
:1000E50033FB10D703994004EB99FB0FD8E5E4F9EE
:1000F500FA227818EF2FFFEE33FEED33FDEC33FCDB
:10010500C933C910D7059BE99A4007EC9BFCE99ACE
:10011500F90FD8E0E4C9FAE4CCFB2275F010EF2F13
:10012500FFEE33FEED33FDCC33CCC833C810D70713
:100135009BEC9AE899400AED9BFDEC9AFCE899F84E
:0E0145000FD5F0DAE4CDFBE4CCFAE4C8F922E1
:10015300EB9FF5F0EA9E42F0E99D42F0E89C45F002
:010163002279
:0C016400E6FC08E6FD08E6FE08E6FF22C7
:0C017000ECF608EDF608EEF608EFF622BB
:100631000207A2E493A3F8E493A34003F68001F236
:1006410008DFF48029E493A3F85407240CC8C333CA
:10065100C4540F4420C8834004F456800146F6DF99
:10066100E4800B01020408102040809003F0E47E36
:10067100019360BCA3FF543F30E509541FFEE4938E
:10068100A360010ECF54C025E060A840B8E493A355
:10069100FAE493A3F8E493A3C8C582C8CAC583CA80
:1006A100F0A3C8C582C8CAC583CADFE9DEE780BE38
:0104B8000043
:00000001FF
