:0F065E0001180002190000C133C131C130C1328F
:10098F00E4FD7FF7120A7EAF39AE38AD37AC368053
:10099F002830330CC233AF180518120A1353180737
:1009AF0030310612052412001E3030E5C2303035CA
:1009BF0010AF3DAE3CAD3BAC3A752B0A1208B1807F
:1009CF00D0AF39AE38AD37AC36752B0A1208B180BF
:0109DF00C057
:03001B0002092AAD
:10092A00C0E0C0F0C0D075D000C000C004C005C08F
:10093A0006C007C28E758DF7758B00D28ED233E54D
:10094A001A30E002D231AE19AF1A7C007D6412026D
:10095A0067ED64634C7002D230C3E51A9490E519CE
:10096A0094014008D232751900751A00051AE51A61
:10097A0070020519D007D006D005D004D000D0D017
:05098A00D0F0D0E032C6
:10066D00043600000000043A0000000001330001D0
:0B067D00342B013500C135C1B6C1347B
:10070300E53424D6604124FD602224FE604E240497
:100713007075E539253DF539E538353CF538E5376C
:10072300353BF537E536353AF536805BC3E5399524
:100733003DF539E538953CF538E537953BF537E533
:1007430036953AF5368040AF39AE38AD37AC36AB77
:100753003DAA3CA93BA83A1202BC8023AF3DAE3C64
:10076300AD3BAC3AEC4D4E4F7002FF22AF39AE3881
:10077300AD37AC36AB3DAA3CA93BA83A1203478F31
:10078300398E388D378C36E4F53DF53CF53BF53A3B
:030793007F0122C1
:0E079600F52DF52CF52BAF3DAE3CAD3BAC3A4E
:0807A4008F2A8E298D288C2775
:1007AC00852E32852D31852C30852B2FAF2AAE2905
:1007BC00AD28AC27E47B0AFAF9F81202BC8F2A8E1A
:1007CC00298D288C27AF32AE31AD30AC2FE47B0AAB
:1007DC00FAF9F81203478F328E318D308C2FE4FFEB
:1007EC00FEFDFCAB32AA31A930A82FD31203D9508D
:1007FC00BBE52A252EFFE529352DFEE528352CFDF8
:10080C00E527352BFC7B007AE179F5780512034757
:08081C00AC00AD01AE02AF0318
:0108240022B1
:1009E000801ED3E52B940074809480401D152BAF9E
:1009F0002AAE29AD28AC27E47B0AFAF9F81203479E
:100A00008F2A8E298D288C2780D8AF2AAE29AD2831
:030A1000AC2722EE
:10001E00300F23C20F303409E4F539F538F537F5D2
:10002E0036D235D236C234E4752E011207968F3D84
:10003E008E3C8D3B8C3A301923C219303409E4F5CD
:10004E0039F538F537F536D235D236C234E4752E59
:10005E00021207968F3D8E3C8D3B8C3A301B23C28D
:10006E001B303409E4F539F538F537F536D235D28B
:10007E0036C234E4752E031207968F3D8E3C8D3BAF
:10008E008C3A300B23C20B303409E4F539F538F5D0
:10009E0037F536D235D236C234E4752E04120796B1
:1000AE008F3D8E3C8D3B8C3A300C23C20C30340984
:1000BE00E4F539F538F537F536D235D236C234E4B3
:1000CE00752E051207968F3D8E3C8D3B8C3A300D6A
:1000DE0023C20D303409E4F539F538F537F536D24B
:1000EE0035D236C234E4752E061207968F3D8E3CFD
:1000FE008D3B8C3A300723C207303409E4F539F5CD
:10010E0038F537F536D235D236C234E4752E0712AD
:10011E0007968F3D8E3C8D3B8C3A300823C20830BB
:10012E003409E4F539F538F537F536D235D236C21D
:10013E0034E4752E081207968F3D8E3C8D3B8C3A1B
:10014E00300923C209303409E4F539F538F537F5AD
:10015E0036D235D236C234E4752E091207968F3D4B
:10016E008E3C8D3B8C3A302122C221303409E4F58D
:10017E0039F538F537F536D235D236C234E4F52EA8
:10018E001207968F3D8E3C8D3B8C3A300A14C20A74
:10019E0075332B303607120703C236C235C234858B
:1001AE003334300E14C20E75332D3036071207035A
:1001BE00C236C235C234853334301D14C21D753378
:1001CE002A303607120703C236C235C2348533349D
:1001DE00302514C22575332F303607120703C23669
:1001EE00C235C234853334302311C223120703C201
:1001FE0036C235D234E4F53375342B301F38C21F76
:10020E00303617AF3DAE3CAD3BAC3A752B01120903
:10021E00E08F3D8E3C8D3B8C3A22E4F539F538F576
:10022E0037F536F53DF53CF53BF53AF53375342BA0
:07023E00C235D236C23422A2
:10068800C190C191C192C193C194C195C196C197BE
:10069800C198C1A9C1AAC1ABC1ACC1ADC1AEC1AFFE
:1006A800C19AC19CC19EC1A0C1A2C1A4C1A6C1A733
:1006B800C1A8C180C181C182C183C184C185C186ED
:1006C800C107C108C109C10AC10BC10CC10DC10EC6
:1006D800C10FC119C11BC11DC11FC121C123C12522
:0606E800011B00011C00D3
:1003EA00E51B14605914700302048E14700302048E
:1003FA00D32403600302051675907FA293921AA272
:10040A0092921CA291921EA2909220201005301A5C
:10041A0002D207201105301C02D208201205301E14
:10042A0002D209201305302002D20AA21A9210A27F
:10043A001C9211A21E9212A2209213020516759006
:10044A00BFA2939222A2929224A2919226A2909261
:10045A0027201405302202D20B201505302402D29F
:10046A000C201605302602D20D201705302702D29D
:10047A000EA2229214A2249215A2269216A22792C2
:10048A00170205167590DFA2939228A2929200A2F3
:10049A00919201A2909202201805302802D20F20D0
:1004AA002905300002D219202A05300102D21B2068
:1004BA002B05300202D21DA2289218A2009229A26C
:1004CA0001922AA202922B80437590EFA293920383
:1004DA00A2929204A2919205A2909206202C053033
:1004EA000302D21F202D05300402D221202E05300E
:1004FA000502D223202F05300602D225A203922C10
:10050A00A204922DA205922EA206922F051BE51B8C
:09051A0075F00412024585F01B86
:0105230022B5
:10052400E51C1460591470030205C8147003020614
:100534000D240360030206507590F7A297921AA245
:10054400969222A2959228A2949203201005301A22
:1005540002D207201405302202D20B2018053028BD
:1005640002D20F202C05300302D21FA21A9210A22D
:10057400229214A2289218A203922C02065075907B
:10058400FBA297921CA2969224A2959200A2949206
:1005940004201105301C02D208201505302402D293
:1005A4000C202905300002D219202D05300402D276
:1005B40021A21C9211A2249215A2009229A20492B3
:1005C4002D0206507590FDA297921EA2969226A225
:1005D400959201A2949205201205301E02D20920A0
:1005E4001605302602D20D202A05300102D21B2026
:1005F4002E05300502D223A21E9212A2269216A222
:1006040001922AA205922E80437590FEA297922011
:10061400A2969227A2959202A294920620130530E4
:100624002002D20A201705302702D20E202B0530D3
:100634000202D21D202F05300602D225A2209213D9
:10064400A2279217A202922BA206922F051CE51C48
:0906540075F00412024585F01C4A
:01065D00227A
:0A0AD700EF24FF9288D2A8D2AF22CC
:0A0AE100EF24FF928AD2AAD2AF22BE
:0E0AB0005389F08F8C8D8AD2AFD2A9D28C22BE
:100A5C005389F04389018F8C8D8AD2AFD2A9D28C65
:010A6C002267
:100A6D005389F04389028F8C8D8AD2AFD2A9D28C53
:010A7D002256
:100A37005389F04389038F8C8D8AD2AFD2A9D28C88
:030A4700D28E222A
:0E0ABE0053890F8F8D8D8BD2AFD2ABD28E228B
:100A7E0053890F4389108F8D8D8BD2AFD2ABD28E0F
:010A8E002245
:100A8F0053890F4389208F8D8D8BD2AFD2ABD28EEE
:010A9F002234
:100A4A003F065B4F666D7D077F6F777C395E7971F4
:020A5A0040005A
:1006EE0008080000000000000000081001010101D0
:0406FE0001010101F4
:080AEB0074082FF8E64480F6C0
:010AF30022E0
:0A0ACC0074082FF8E6547F547FF6FB
:010AD60022FD
:0F0AA00074082FF8E65480FEED900A4A934EF644
:010AAF002224
:0808B1008F2A8E298D288C2767
:1008B900E4F52CAF2BAB07E4FAF9F8AF2AAE29AD72
:1008C90028AC27120347744A2BF582740A3AF58338
:1008D900E493FFAE2C052C74082EF8A607AF2AAEB8
:1008E90029AD28AC27E47B0AFAF9F81203478F2AC5
:1008F9008E298D288C27E4FFFEFDFCAB2AAA29A9A5
:1009090028A827D31203D950AAC3E52C94087480C8
:100919009480500CAF2C052C74082FF8E4F680E96C
:0109290022AB
:10000300E4F51DC3E51D9408748094805009AF1D69
:07001300120A13051D80EC29
:01001A0022C3
:100A1300E4F580EF1392A2EFC3131392A3EF131322
:100A2300543F1392A474102FF8E6600774082FF84C
:040A3300E6F5802242
:070AF40074102FF8A6052283
:03000000020825CE
:0C082500787FE4F6D8FD75813D02086C78
:10024500C2D530F707B2D563F0FF05F030E70CB241
:10025500D5F4048463F0FF05F080018430D502F401
:02026500042271
:10026700BC000BBE0029EF8DF084FFADF022E4CC7B
:10027700F875F008EF2FFFEE33FEEC33FCEE9DEC44
:10028700984005FCEE9DFE0FD5F0E9E4CEFD22ED8A
:10029700F8F5F0EE8420D21CFEADF075F008EF2FD4
:1002A700FFED33FD4007985006D5F0F222C398FDC5
:0502B7000FD5F0EA2262
:1002BC00E88FF0A4CC8BF0A42CFCE98EF0A42CFCE1
:1002CC008AF0EDA42CFCEA8EF0A4CDA8F08BF0A45F
:1002DC002DCC3825F0FDE98FF0A42CCD35F0FCEBBE
:1002EC008EF0A4FEA9F0EB8FF0A4CFC5F02ECD3983
:0F02FC00FEE43CFCEAA42DCE35F0FDE43CFC22F0
:10030B0075F008758200EF2FFFEE33FECD33CDCCA9
:10031B0033CCC58233C5829BED9AEC99E58298402C
:10032B000CF582EE9BFEED9AFDEC99FC0FD5F0D609
:10033B00E4CEFBE4CDFAE4CCF9A88222B800C1B933
:10034B000059BA002DEC8BF084CFCECDFCE5F0CB71
:10035B00F97818EF2FFFEE33FEED33FDEC33FCEBAA
:10036B0033FB10D703994004EB99FB0FD8E5E4F965
:10037B00FA227818EF2FFFEE33FEED33FDEC33FC52
:10038B00C933C910D7059BE99A4007EC9BFCE99A46
:10039B00F90FD8E0E4C9FAE4CCFB2275F010EF2F8B
:1003AB00FFEE33FEED33FDCC33CCC833C810D7078B
:1003BB009BEC9AE899400AED9BFDEC9AFCE899F8C6
:0E03CB000FD5F0DAE4CDFBE4CCFAE4C8F92259
:1003D900EB9FF5F0EA9E42F0E99D42F0E89C45F07A
:0103E90022F1
:1008310002098FE493A3F8E493A34003F68001F245
:1008410008DFF48029E493A3F85407240CC8C333C8
:10085100C4540F4420C8834004F456800146F6DF97
:10086100E4800B010204081020408090065EE47EC3
:10087100019360BCA3FF543F30E509541FFEE4938C
:10088100A360010ECF54C025E060A840B8E493A353
:10089100FAE493A3F8E493A3C8C582C8CAC583CA7E
:1008A100F0A3C8C582C8CAC583CADFE9DEE780BE36
:0107020000F6
:00000001FF
