:1005E800021B0000C135C130C133C132C134C1362C
:0805F800C1B1011D00011E0A42
:10000E00E4F540FD7FF7120CFB120875303305D274
:10001E00331204AE30322EC232AF40120C9A7F042D
:10002E0030310A120D6B7F02120D6B8008120D8A91
:10003E007F02120D8A0540C3E540940874809480B7
:10004E004003E4F54030304BC23030364430311B83
:10005E00E51D24FE600C047038A2349239120B1484
:10006E00802FA2349239120B528026E51D24FE6099
:10007E001014601624027019A2349239120A4D809F
:10008E0010A2349239120B908007A2349239120BBF
:10009E00CEB23430354BC235151ED3E51E940074E6
:1000AE008094805026C23630310CD239120B14D2C5
:1000BE0039120B52800FD239120A4DD239120B90CF
:1000CE00D239120BCE751E0AE4F51D1206A0203889
:1000DE000330370DC2383031051208758003120710
:1000EE004A301F2BC21FB23130310FD239120B14CE
:1000FE00D239120B521208758012D239120A4DD211
:10010E0039120B90D239120BCE12074AE4F51D307C
:10011E00232BC223D236051D30310DC3E51D9403AA
:10012E00748094804017800BC3E51D9404748094F2
:10013E0080400AE4F51DC236D239120B14300A4241
:10014E00C20A30363D751E0A303117E51D24FE6099
:10015E000A04702E7F01120C6F80277F01120A9104
:10016E008020E51D24FE600E146012240270137FA1
:10017E0001120AD5800C7F01120C4180057F0112FD
:10018E0008F2200E0302001AC20E20360302001AD5
:10019E00751E0A30311CE51D24FE600E046003023C
:1001AE00001A7FFF120C6F02001A7FFF120A9102D3
:1001BE00001AE51D24FE601214601724026003026B
:1001CE00001A7FFF120AD502001A7FFF120C41029D
:0A01DE00001A7FFF1208F202001A57
:03000B000209E8FF
:1009E800C0E0C0F0C0D075D000C000C004C005C0D1
:1009F80006C007C28C758CF7758A00D28CD232E596
:100A08001C30E002D233AE1BAF1C7C007DC8120242
:100A18000AED64C74C7002D230C3E51C9490E51B04
:100A280094014008751B00751C00D235051CE51C97
:100A38007002051BD007D006D005D004D000D0D056
:050A4800D0F0D0E03207
:10060000C138C137021707E4011601011901011AA7
:10061000000115000114000C081F1C1F1E1F1E1FC7
:050620001F1E1F1E1F3C
:100C0C00AE17AF187C007D0412025FED4C7023AE62
:100C1C0017AF18FC7D6412025FED4C7012AE17AF6B
:100C2C00187C017D9012025FED4C60037F00227FE7
:050C3C0001227F0022EF
:1006A0000514D238AF14EF3395E0FED3EF943BEE50
:1006B000648094805003020749E4F5140515AF15D2
:1006C000EF3395E0FED3EF943BEE64809480407965
:1006D000E4F515051AAF1AEF3395E0FED3EF941742
:1006E000EE648094804062E4F51AD2370519120C4A
:1006F0000CEFFBAF16EF3395E0FEEF24FFFFEE3477
:10070000FFFE7C007D0C12025F74082DF8E62BFFC3
:10071000E433FEAD19ED3395E0FCD3ED9FEE64803C
:10072000F8EC64809840227519010516AF16EF3376
:1007300095E0FED3EF940CEE64809480400B751628
:0A074000010518E5187002051722E4
:10087500E51A75F00A1201E8FF75F00A1201E8ADF4
:10088500F07F07120D3FE51A75F00A1201E8ADF089
:100895007F06120D3F7D107F05120D3FE51575F0A2
:1008A5000A1201E8FF75F00A1201E8ADF07F0412A3
:1008B5000D3FE51575F00A1201E8ADF07F03120D45
:1008C5003F7D107F02120D3FE51475F00A1201E815
:1008D500FF75F00A1201E8ADF07F01120D3FE51436
:0D08E50075F00A1201E8ADF0E4FF020D3FCE
:10074A00AE17AF187C037DE812025F7C007D0A12A7
:10075A00025F7F07120D3FAE17AF187C007D64124F
:10076A00025F7C007D0A12025F7F06120D3FAE1700
:10077A00AF187C007D0A12025F7C007D0A12025FBC
:10078A007F05120D3FAE17AF187C007D0A12025F7B
:10079A007F04120D3FE51675F00A1201E8FF75F0A5
:1007AA000A1201E8ADF07F03120D3FE51675F00A53
:1007BA001201E8ADF07F02120D3FE51975F00A1239
:1007CA0001E8FF75F00A1201E8ADF07F01120D3F52
:0F07DA00E51975F00A1201E8ADF0E4FF020D3FDA
:100B1400A239E433FD7F07120003A239E433FD7FD9
:100B2400061200037D017F051200037D017F04127C
:100B340000037D017F031200037D017F0212000385
:0E0B44007D017F011200037D01E4FF0200032A
:100B52007D017F071200037D017F061200037D01E4
:100B62007F05120003A239E433FD7F04120003A2C1
:100B720039E433FD7F031200037D017F021200037B
:0E0B82007D017F011200037D01E4FF020003EC
:100A4D00A239E433FD7F07120003A239E433FD7FA1
:100A5D0006120003A239E433FD7F05120003A2390B
:100A6D00E433FD7F041200037D017F031200037D3B
:100A7D00017F021200037D017F011200037D01E45D
:040A8D00FF02000361
:100B90007D017F071200037D017F061200037D01A6
:100BA0007F051200037D017F04120003A239E433A4
:100BB000FD7F03120003A239E433FD7F021200031C
:0E0BC0007D017F011200037D01E4FF020003AE
:100BCE007D017F071200037D017F061200037D0168
:100BDE007F051200037D017F041200037D017F0358
:100BEE001200037D017F02120003A239E433FD7F60
:0E0BFE0001120003A239E433FDE4FF020003FC
:100C6F00EF251AF51AFF3395E0FED3EF9417EE64D4
:100C7F008094804005E4F51A800BC3EE6480948065
:0B0C8F005003751A17E4F514020875F5
:100A9100EF2515F515FF3395E0FED3EF943BEE649A
:100AA100809480401CE4F515051AAD1AED3395E0EC
:100AB100FCD3ED9417EC648094804012E4F51A8025
:100AC1000DC3EE64809480500575153B151AE4F54D
:040AD100140208758E
:100AD500EF3395E0FEEF2518F518EE3517F517D32A
:100AE500E518940FE517648094A74007E4F517F51A
:100AF500188013AF16EF3395E0C3648094805006D9
:0F0B050075172775180F75160175190102074A24
:100C4100EF2516F516FF3395E0FED3EF940CEE6415
:100C51008094804005751601800EC3EF9401EE6407
:0E0C6100809480500375160C75190102074A25
:1008F200EF2519F519AF16EF3395E0FEEF64024EBE
:10090200703D120C0C74072516F8E62FFFE433FE37
:10091200AD19ED3395E0FCD3ED9FEE6480F8EC6405
:10092200809840028032C3ED9401EC648094805040
:1009320039120C0C74072516F8E62FF519802B7462
:10094200072516F8E6FFFDE519FB3395E0FAD3EB30
:100952009D7480F86A984005751901800DC3EB9467
:0D09620001EA6480948050028F1902074A58
:100CE9003F065B4F666D7D077F6F777C395E797153
:020CF9004000B9
:100625000828000000000000000008300101010159
:0406350001010101BD
:080D8A0074282FF8E64480F6FE
:010D9200223E
:0A0D6B0074282FF8E6547F547FF639
:010D7500225B
:0F0D3F0074282FF8E65480FEED900CE9934EF6E1
:010D4E002282
:08096F008F3B8E3A8D398C3864
:10097700E4F53DAF3CAB07E4FAF9F8AF3BAE3AAD6F
:1009870039AC381202D174E92BF582740C3AF5832D
:10099700E493FFAE3D053D74282EF8A607AF3BAEA6
:1009A7003AAD39AC38E47B0AFAF9F81202D18F3B39
:1009B7008E3A8D398C38E4FFFEFDFCAB3BAA3AA991
:1009C70039A838D312036350AAC3E53D940874804D
:1009D7009480500CAF3D053D74282FF8E4F680E96C
:0109E70022ED
:100CBE00E4F51FC3E51F9408748094805009AF1F9C
:070CCE00120C9A051F80ECD7
:010CD50022FC
:100C9A00E4F580EF1392A2EFC3131392A3EF131399
:100CAA00543F1392A474302FF8E6600774282FF883
:040CBA00E6F58022B9
:0700030074302FF8A605225E
:0A0D7600EF24FF9288D2A8D2AF222A
:0A0D8000EF24FF928AD2AAD2AF221C
:0E0D4F005389F08F8C8D8AD2AFD2A9D28C221C
:100CFB005389F04389018F8C8D8AD2AFD2A9D28CC4
:010D0B0022C5
:100D0C005389F04389028F8C8D8AD2AFD2A9D28CB1
:010D1C0022B4
:100CD6005389F04389038F8C8D8AD2AFD2A9D28CE7
:030CE600D28E2289
:0E0D5D0053890F8F8D8D8BD2AFD2ABD28E22E9
:100D1D0053890F4389108F8D8D8BD2AFD2ABD28E6D
:010D2D0022A3
:100D2E0053890F4389208F8D8D8BD2AFD2ABD28E4C
:010D3E002292
:10063900C190C191C192C193C194C195C196C1970D
:10064900C198C1A9C1AAC1ABC1ACC1ADC1AEC1AF4D
:10065900C19AC19CC19EC1A0C1A2C1A4C1A6C1A782
:10066900C1A8C180C181C182C183C184C185C1863C
:10067900C107C108C109C10AC10BC10CC10DC10E15
:10068900C10FC119C11BC11DC11FC121C123C12571
:06069900013E00013F00DC
:10037400E53E146059147003020418147003020457
:100384005D240360030204A075907FA293921AA2D5
:1003940092921CA291921EA2909220201005301AD3
:1003A40002D207201105301C02D208201205301E8B
:1003B40002D209201305302002D20AA21A9210A2F6
:1003C4001C9211A21E9212A22092130204A07590F4
:1003D400BFA2939222A2929224A2919226A29092D8
:1003E40027201405302202D20B201505302402D216
:1003F4000C201605302602D20D201705302702D214
:100404000EA2229214A2249215A2269216A2279238
:10041400170204A07590DFA2939228A2929200A2E0
:10042400919201A2909202201805302802D20F2046
:100434002905300002D219202A05300102D21B20DE
:100444002B05300202D21DA2289218A2009229A2E2
:1004540001922AA202922B80437590EFA2939203F9
:10046400A2929204A2919205A2909206202C0530A9
:100474000302D21F202D05300402D221202E053084
:100484000502D223202F05300602D225A203922C86
:10049400A204922DA205922EA206922F053EE53EBD
:0904A40075F0041201E885F03E38
:0104AD00222C
:1004AE00E53F1460591470030205521470030205DF
:1004BE0097240360030205DA7590F7A297921AA2A9
:1004CE00969222A2959228A2949203201005301A99
:1004DE0002D207201405302202D20B201805302834
:1004EE0002D20F202C05300302D21FA21A9210A2A4
:1004FE00229214A2289218A203922C0205DA759069
:10050E00FBA297921CA2969224A2959200A294927C
:10051E0004201105301C02D208201505302402D209
:10052E000C202905300002D219202D05300402D2EC
:10053E0021A21C9211A2249215A2009229A2049229
:10054E002D0205DA7590FDA297921EA2969226A212
:10055E00959201A2949205201205301E02D2092016
:10056E001605302602D20D202A05300102D21B209C
:10057E002E05300502D223A21E9212A2269216A298
:10058E0001922AA205922E80437590FEA297922088
:10059E00A2969227A2959202A2949206201305305B
:1005AE002002D20A201705302702D20E202B05304A
:1005BE000202D21D202F05300602D225A220921350
:1005CE00A2279217A202922BA206922F053FE53F79
:0905DE0075F0041201E885F03FFC
:0105E70022F1
:030000000207E90B
:0C07E900787FE4F6D8FD758140020830EE
:1001E800C2D530F707B2D563F0FF05F030E70CB29F
:1001F800D5F4048463F0FF05F080018430D502F45F
:020208000422CE
:10020A00BC000BBE0029EF8DF084FFADF022E4CCD8
:10021A00F875F008EF2FFFEE33FEEC33FCEE9DECA1
:10022A00984005FCEE9DFE0FD5F0E9E4CEFD22EDE7
:10023A00F8F5F0EE8420D21CFEADF075F008EF2F31
:10024A00FFED33FD4007985006D5F0F222C398FD22
:05025A000FD5F0EA22BF
:10025F00C2D5EC30E709B2D5E4C39DFDE49CFCEEBA
:10026F0030E715B2D5E4C39FFFE49EFE12020AC326
:10027F00E49DFDE49CFC800312020A30D507C3E421
:06028F009FFFE49EFE2229
:1002950075F008758200EF2FFFEE33FECD33CDCC20
:1002A50033CCC58233C5829BED9AEC99E5829840A3
:1002B5000CF582EE9BFEED9AFDEC99FC0FD5F0D680
:1002C500E4CEFBE4CDFAE4CCF9A88222B800C1B9AA
:1002D5000059BA002DEC8BF084CFCECDFCE5F0CBE8
:1002E500F97818EF2FFFEE33FEED33FDEC33FCEB21
:1002F50033FB10D703994004EB99FB0FD8E5E4F9DC
:10030500FA227818EF2FFFEE33FEED33FDEC33FCC8
:10031500C933C910D7059BE99A4007EC9BFCE99ABC
:10032500F90FD8E0E4C9FAE4CCFB2275F010EF2F01
:10033500FFEE33FEED33FDCC33CCC833C810D70701
:100345009BEC9AE899400AED9BFDEC9AFCE899F83C
:0E0355000FD5F0DAE4CDFBE4CCFAE4C8F922CF
:10036300EB9FF5F0EA9E42F0E99D42F0E89C45F0F0
:010373002267
:1007F50002000EE493A3F8E493A34003F68001F20C
:1008050008DFF48029E493A3F85407240CC8C33304
:10081500C4540F4420C8834004F456800146F6DFD3
:10082500E4800B01020408102040809005E8E47E76
:10083500019360BCA3FF543F30E509541FFEE493C8
:10084500A360010ECF54C025E060A840B8E493A38F
:10085500FAE493A3F8E493A3C8C582C8CAC583CABA
:10086500F0A3C8C582C8CAC583CADFE9DEE780BE72
:01069F00005A
:00000001FF
